:020000040800F2
:1000000000000420E51D00084D1B0008531B0008DC
:10001000591B00085F1B0008651B0008000000005A
:1000200000000000000000000000000011C10008F6
:100030006B1B00080000000021C3000889C30008F2
:10004000351E0008351E0008351E0008351E000844
:10005000351E0008351E0008351E0008351E000834
:10006000351E0008351E0008351E0008351E000824
:10007000351E0008351E0008351E0008351E000814
:10008000351E0008351E0008351E0008351E000804
:10009000351E0008351E0008351E0008351E0008F4
:1000A000351E0008351E0008351E0008351E0008E4
:1000B000351E0008351E0008351E0008351E0008D4
:1000C000351E0008351E0008351E0008791B000883
:1000D0008D1B0008351E0008351E0008351E00085F
:1000E000351E0008351E0008351E0008A11B00083B
:1000F000351E0008351E0008351E0008351E000894
:10010000351E0008351E0008351E0008B51B000806
:10011000351E0008C91B0008DD1B0008F11B000884
:10012000351E0008351E0008351E0008351E000863
:10013000351E000800000000000000000000000064
:10014000000000000000000000000000351E000854
:10015000351E0008351E0008351E0008351E000833
:10016000351E0008351E0008351E0008351E000823
:10017000351E0008351E00080000000000000000C9
:10018000351E0008351E0008351E0008351E000803
:10019000351E0008351E000800000000351E00084E
:1001A000000000000000000000000000351E0008F4
:1001B000351E0008351E0008000000000000000089
:1001C000000000000000000000000000000000002F
:1001D000000000000000000000000000351E0008C4
:1001E00010B5054C237833B9044B13B10448AFF371
:1001F00000800123237010BD2806002000000000AD
:1002000074C2020808B5034B1BB103490348AFF39E
:10021000008008BD000000002C06002074C2020807
:1002200001F0FF01102A2BDB10F0070F08D010F8A7
:10023000013B013A8B422DD010F0070F42B3F6D1AB
:10024000F0B441EA012141EA014122F007047FF0C4
:1002500000070023F0E80256083C85EA010586EA1B
:10026000010685FA47F5A3FA87F586FA47F6A5FA57
:1002700087F68EB9EED1F0BC01F0FF0102F0070263
:1002800032B110F8013B013A83EA010313B1F8D10E
:100290000020704701387047002D06BF35460338EF
:1002A000073815F0010F07D1013015F4807F02BF28
:1002B000013015F4C03F0130F0BC0138704700BF79
:1002C00053B94AB9002908BF00281CBF4FF0FF31BD
:1002D0004FF0FF3000F06EB9ADF1080C6DE904CEBF
:1002E00000F006F8DDF804E0DDE9022304B0704711
:1002F0002DE9F047089D04468C46002B40F0838092
:100300008A42174647D9B2FA82F242B1C2F12000BE
:1003100024FA00F09140974040EA010C94404FEAE3
:100320001748230CBCFBF8F61FFA87FE08FB16C122
:1003300043EA014306FB0EF1994209D9FB1806F185
:10034000FF3080F01981994240F21681023E3B4411
:100350005B1AA4B2B3FBF8F008FB103344EA034481
:1003600000FB0EFEA64509D93C1900F1FF3380F0D1
:100370000581A64540F2028102383C4440EA06402D
:10038000A4EB0E0400261DB1D4400023C5E90043B0
:100390003146BDE8F08702B9FFDEB2FA82F2002AE8
:1003A00050D1CB1B4FEA174E1FFA87F80126B3FB3B
:1003B000FEFC210C0EFB1C3341EA034108FB0CF34D
:1003C0008B4207D979180CF1FF3002D28B4200F230
:1003D000E9808446C91AA3B2B1FBFEF00EFB1011EE
:1003E00043EA014408FB00F8A04507D93C1900F195
:1003F000FF3302D2A04500F2D9801846A4EB0804CE
:1004000040EA0C40BFE78B4209D9002D00F0B180D3
:100410000026C5E9000130463146BDE8F087B3FA51
:1004200083F6002E4AD18B4202D3824200F2B8807A
:10043000841A61EB030101208C46002DA8D0C5E988
:10044000004CA5E7C2F1200320FA03F6974001FA19
:1004500002F04FEA174ED9403043030CB1FBFEF6D1
:100460001FFA87F80EFB161143EA014306FB08F159
:10047000994204FA02F409D9FB1806F1FF3C80F016
:100480008D80994240F28A80023E3B445B1A81B2E1
:10049000B3FBFEF00EFB103341EA034100FB08F30F
:1004A0008B4207D9791800F1FF3C73D28B4271D986
:1004B00002383944CB1A40EA064678E7C6F1200CE8
:1004C00003FA06F422FA0CF31C4320FA0CF701FAA3
:1004D00006F34FEA144E21FA0CF11F433B0CB1FB1B
:1004E000FEF91FFA84F80EFB191143EA014109FBDA
:1004F00008FA8A4502FA06F200FA06F308D96118EA
:1005000009F1FF3048D28A4546D9A9F102092144B0
:10051000A1EB0A01BFB2B1FBFEF00EFB101147EADE
:10052000014700FB08F8B84507D9E71900F1FF318A
:100530002ED2B8452CD90238274440EA0940A7EB0F
:100540000807A0FB02894F45C64649461AD317D073
:100550005DB1B3EB0E0267EB010707FA0CFCF2404A
:100560004CEA0202F740C5E9002700263146BDE803
:10057000F0872E4628460BE70646E9E61846FDE6D4
:100580004345E5D2B8EB020E69EB04010138DFE721
:100590000846D2E760468DE78146B9E7664675E7CB
:1005A00030464AE7ACF1020C394413E702383C44C8
:1005B00024E700BF704700BF80B582B000AF03469C
:1005C000FB71FB79002B09D10A4B1B78184600F010
:1005D00015F80421084805F0B9FE07E00421064893
:1005E00005F0AEFF002000F009F800BF00BF08379B
:1005F000BD4680BD04000020E028012080B483B007
:1006000000AF0346FB710D4B1B78FA799A420ED06E
:10061000FB79642B28BF6423FB71084AFB791370B4
:10062000FB79002B064B1B68FA799A6300E000BF48
:100630000C37BD465DF8047B704700BF0400002006
:10064000E028012080B400AF00BFBD465DF8047B08
:10065000704780B400AF00BFBD465DF8047B7047B3
:1006600080B400AFBFF34F8F00BFBFF36F8F00BFE9
:100670000D4B0022C3F85022BFF34F8F00BFBFF3D2
:100680006F8F00BF084B5B69074A43F40033536127
:10069000BFF34F8F00BFBFF36F8F00BF00BFBD46DA
:1006A0005DF8047B704700BF00ED00E080B485B0CA
:1006B00000AF1F4B0022C3F88420BFF34F8F00BF51
:1006C0001B4BD3F880307B607B685B0BC3F30E035E
:1006D000FB607B68DB08C3F30903BB60FB685A015E
:1006E00043F6E0731340BA68920711491343C1F807
:1006F0006032BB685A1EBA60002BEFD1FB685A1EED
:10070000FA60002BE5D1BFF34F8F00BF084B5B6948
:10071000074A43F480335361BFF34F8F00BFBFF3E9
:100720006F8F00BF00BF1437BD465DF8047B704774
:1007300000ED00E080B582B000AF7860391D4FF663
:10074000FF730122034806F089FF7B6818460837CB
:10075000BD4680BD5C28012080B582B000AFFFF7A8
:100760007FFFFFF7A3FF02F02BFA00F053F800F031
:1007700043FB00F0E1F800F001F900F02DF900F082
:1007800091FA00F0C9FA00F001FB00F0DFF900F087
:1007900061F900F09DF90CF071F80623FB7101225C
:1007A0001449154806F0EDFF01224FF480711348FB
:1007B00002F09AFFF91D642301220F4806F04EFF54
:1007C00000224FF480710D4802F08EFF0C482BF090
:1007D0007BF90C482BF078F908F03AFB0A4A002123
:1007E0000A4808F09FFB0346094A136008F064FBBF
:1007F000FEE700BFC02A01205C280120000802405B
:100800009CC20208E8C20208E0FE0208890F000844
:100810006C27012080B5B4B000AF07F1A0033022EF
:10082000002118462AF0B0FD07F18C0300221A605F
:100830005A609A60DA601A6107F10C038022002185
:1008400018462AF0A1FD02F089FF394B1B6C384A8B
:1008500043F080531364364B1B6C03F08053BB6032
:10086000BB68344B1B68334A43F440431360314B3D
:100870001B6803F440437B607B680123C7F8A0300A
:100880004FF48033C7F8A4300223C7F8B8304FF4D0
:100890008003C7F8BC300623C7F8C030D823C7F898
:1008A000C4300223C7F8C8300223C7F8CC3007F1A0
:1008B000A003184603F07AFB0346002B01D000F09A
:1008C000A9FD02F05BFF0346002B01D000F0A2FD62
:1008D0000F23C7F88C300223C7F890300023C7F8E5
:1008E00094304FF4A053C7F898304FF48053C7F8B2
:1008F0009C3007F18C030721184603F0FBFD0346EB
:10090000002B01D000F086FD4FF48063FB600023D4
:10091000BB6507F10C03184603F0F4FF0346002BF8
:1009200001D000F077FD00BFD037BD4680BD00BFCD
:10093000003802400070004080B500AF0D4B0E4AF9
:100940001A600C4B00221A710A4B00225A71094B93
:1009500000225A61074B00229A61064B01221A625B
:10096000044802F0A1FA0346002B01D000F052FD2A
:1009700000BF80BDD42701200030024080B500AF09
:10098000134B144A1A60124B64225A60104B012216
:100990009A600F4B0022DA600D4B01221A610C4B5A
:1009A00000225A610A4B00229A61094B0022DA6147
:1009B000074B00221A62064802F030FF0346002B64
:1009C00001D000F027FD01F071FF00BF80BD00BF26
:1009D000282A0120001000A080B500AF1B4B1C4A44
:1009E0001A601A4B4FF482725A60184B00229A60B8
:1009F000164B4FF4E062DA60144B00221A61134B7D
:100A000000225A61114B4FF400729A610F4B102271
:100A1000DA610E4B00221A620C4B00225A620B4B19
:100A200000229A62094B0722DA62084B00221A63FD
:100A3000064B08225A63054804F0AEFA0346002B21
:100A400001D000F0E7FC00BF80BD00BF2C290120D1
:100A50000030014080B500AF1B4B1C4A1A601A4B96
:100A60004FF482725A60184B00229A60164B4FF472
:100A7000E062DA60144B00221A61134B00225A61C3
:100A8000114B4FF400729A610F4B0822DA610E4B42
:100A900000221A620C4B00225A620B4B00229A620F
:100AA000094B0722DA62084B00221A63064B082220
:100AB0005A63054804F070FA0346002B01D000F099
:100AC000A9FC00BF80BD00BF702701200038004096
:100AD00080B500AF1B4B1C4A1A601A4B4FF4827250
:100AE0005A60184B00229A60164B4FF4E062DA60AD
:100AF000144B00221A61134B00225A61114B4FF420
:100B000000729A610F4B0822DA610E4B00221A62C2
:100B10000C4B00225A620B4B00229A62094B0722AF
:100B2000DA62084B00221A63064B08225A63054812
:100B300004F032FA0346002B01D000F06BFC00BF3A
:100B400080BD00BFF8270120003C004080B59AB06E
:100B500000AF07F1580300221A605A609A60DA6009
:100B600007F14C0300221A605A609A6007F13003C3
:100B700000221A605A609A60DA601A615A619A61BA
:100B80003B1D2C22002118462AF0FEFB434B444A11
:100B90001A60424B40F237425A60404B00229A6042
:100BA0003E4B6322DA603D4B00221A613B4B002230
:100BB0005A613A4B00229A61384805F095FA03468B
:100BC000002B01D000F026FC4FF48053BB6507F1E9
:100BD00058031946314805F067FF0346002B01D042
:100BE00000F018FC2D4805F04FFB0346002B01D008
:100BF00000F010FC0023FB6400233B6500237B65B1
:100C000007F14C031946254806F0FEFB0346002B6E
:100C100001D000F0FFFB60233B6300237B630223D2
:100C2000BB630023FB6300233B6400237B6400233E
:100C3000BB6407F1300304221946184805F020FE72
:100C40000346002B01D000F0E5FB00237B6000236E
:100C5000BB600023FB6000233B6100237B614FF4FA
:100C60000053BB610023FB6100233B624FF0007324
:100C70007B620023BB620023FB623B1D19460748D1
:100C800006F050FC0346002B01D000F0C3FB0348E4
:100C900000F050FE00BF6837BD4680BDE02801204F
:100CA0000000014080B584B000AF3B1D00221A60F7
:100CB0005A609A60164B174A1A60154B40F2077239
:100CC0005A60134B00229A60114B40F2F312DA6023
:100CD0000F4B00229A610E4805F006FA0346002BDE
:100CE00001D000F097FB00237B600023FB603B1DDD
:100CF0001946074806F088FB0346002B01D000F098
:100D000089FB034805F048FA00BF1037BD4680BD97
:100D1000DC2901200014004080B584B000AF3B46C0
:100D200000221A605A609A60DA60164B164A1A60FE
:100D3000144B00225A60134B00229A60114B4FF65D
:100D4000FF72DA600F4B00221A610E4B00229A618B
:100D50000C4805F0C9F90346002B01D000F05AFBFE
:100D60004FF480533B603B461946064805F09CFE15
:100D70000346002B01D000F04DFB00BF1037BD46ED
:100D800080BD00BF902901200018004080B500AF51
:100D9000174B184A1A60164B4FF4E1325A60144B45
:100DA00000229A60124B0022DA60114B00221A6175
:100DB0000F4B0C225A610E4B00229A610C4B002201
:100DC000DA610B4B00221A62094B00225A6200239F
:100DD00000220021064807F0CBFF0346002B01D07C
:100DE00000F018FB024806F01AFD00BF80BD00BFEE
:100DF0005C2801200050004080B58AB000AF07F1A8
:100E0000140300221A605A609A60DA601A615A4B21
:100E10001B6B594A43F004031363574B1B6B03F0DE
:100E200004033B613B69544B1B6B534A43F0800303
:100E30001363514B1B6B03F08003FB60FB684E4B4D
:100E40001B6B4D4A43F0010313634B4B1B6B03F0C9
:100E50000103BB60BB68484B1B6B474A43F002036E
:100E60001363454B1B6B03F002037B607B68424BB3
:100E70001B6B414A43F0080313633F4B1B6B03F0AA
:100E800008033B603B68012242F219013B4802F033
:100E90002BFC012248F21D11394802F025FC0022EA
:100EA00041F20201364802F01FFC012243F6030121
:100EB000344802F019FC00224FF40471314802F06A
:100EC00013FC42F219037B610123BB610023FB6128
:100ED00000233B6207F114031946284802F06CF91D
:100EE00049F21F137B610123BB610023FB610023D7
:100EF0003B6207F114031946214802F05DF943F6FD
:100F000013237B610123BB610023FB6100233B6250
:100F100007F1140319461B4802F04EF94CF28013F6
:100F20007B610323BB610023FB6107F114031946B6
:100F3000144802F041F9C0237B610323BB61002305
:100F4000FB6107F1140319460C4802F035F94FF420
:100F500040637B610323BB610023FB6107F1140342
:100F60001946074802F028F9802002F0D7FB00BF9D
:100F70002837BD4680BD00BF00380240000802404F
:100F8000000002400004024080B582B000AF7860EB
:100F90000020FFF711FB6420FFF730FBB54BB64A8A
:100FA000DA63B44BB54A1A64B24B1022A3F844205A
:100FB000B04BB24A9A64AF4B0222A3F84C20AD4B1F
:100FC000AE4A1A65AB4B4FF48052A3F85420A94B9C
:100FD0001B6800209847A74BA74AC3F89420A54B4D
:100FE000A74AC3F89820A34B4FF40052A3F89C20C3
:100FF000A04BA24AC3F8A0209E4B0222A3F8A42033
:101000009C4B9E4AC3F8A8209A4B4FF48052A3F8F9
:10101000AC20984B9B6D01209847964B964AC3F89D
:10102000EC20944B964AC3F8F020924B0122A3F88F
:10103000F420904B914AC3F8F8208E4B0222A3F87B
:10104000FC208C4B8D4AC3F800218A4B4FF4805210
:10105000A3F80421874BD3F8B03002209847854B82
:10106000854AC3F84421834B854AC3F84821814B04
:101070000822A3F84C217F4B804AC3F850217D4BB6
:101080000222A3F854217B4B7C4AC3F85821794BA8
:101090004FF48052A3F85C21764BD3F8083103203B
:1010A0009847744B744AC3F89C21724B734AC3F837
:1010B000A021704B0122A3F8A4216E4B6F4AC3F804
:1010C000A8216C4B0222A3F8AC216A4B6B4AC3F8EF
:1010D000B021684B4FF48052A3F8B421654BD3F88C
:1010E000603104209847634B664AC3F8F421614B92
:1010F000654AC3F8F8215F4B4FF48052A3F8FC21F6
:101100005C4B614AC3F800225A4B1022A3F8042218
:10111000584B5A4AC3F80822564B4FF48052A3F852
:101120000C22544BD3F8B83105209847514B554AFF
:10113000C3F84C224F4B514AC3F850224D4B042266
:10114000A3F854224B4B504AC3F85822494B102263
:10115000A3F85C22474B494AC3F86022454B4FF441
:101160008052A3F86422434BD3F8103206209847EC
:10117000404B444AC3F8A4223E4B404AC3F8A8223D
:101180003C4B0822A3F8AC223A4B3F4AC3F8B022AA
:10119000384B1022A3F8B422364B384AC3F8B82291
:1011A000344B4FF48052A3F8BC22324BD3F8683250
:1011B000072098472F4B334AC3F8FC222D4B304A67
:1011C000C3F800232B4B1022A3F80423294B2E4AEB
:1011D000C3F80823274B1022A3F80C23254B274ADA
:1011E000C3F81023234B4FF48052A3F81423214B50
:1011F000D3F8C032082098471E4B224AC3F8542324
:101200001C4B214AC3F858231A4B0122A3F85C2334
:10121000184B1D4AC3F86023164B1022A3F8642311
:10122000144B164AC3F86823124B4FF48052A3F8AC
:101230006C23104BD3F81833092098470D4B134AF1
:10124000C3F8AC230B4B0D4AC3F8B023094B4FF442
:101250000042A3F8B423074B0B4AC3F8B823054B4D
:101260004FF40072A3F8BC23024B044AC3F8C02316
:101270000EE000BF0C0000202C29012000000240DD
:10128000000802407027012000040240F8270120D6
:101290004F4B4FF48052A3F8C4234D4BD3F8703317
:1012A0000A2098474A4B4B4AC3F80424484B4A4A01
:1012B000C3F80824464B0222A3F80C24444B464AA8
:1012C000C3F81024424B4FF40072A3F81424404B8F
:1012D000424AC3F818243E4B4FF48052A3F81C2412
:1012E0003B4BD3F8C8330B209847394B394AC3F8E6
:1012F0005C24374B384AC3F86024354B4FF4006206
:10130000A3F86424324B344AC3F86824304B4FF4BA
:101310000072A3F86C242E4B304AC3F870242C4B77
:101320004FF48052A3F87424294BD3F820340C20B6
:101330009847274B274AC3F8B424254B264AC3F8BD
:10134000B824234B4FF40052A3F8BC24204B224A6C
:10135000C3F8C0241E4B4FF40072A3F8C4241C4BE6
:101360001E4AC3F8C8241A4B4FF48052A3F8CC2469
:10137000174BD3F878340D209847154B154AC3F80E
:101380000C25134B154AC3F81025114B4FF48072EE
:10139000A3F814250E4B104AC3F818250C4B4FF434
:1013A0000072A3F81C250A4B0C4AC3F82025084BF1
:1013B0004FF48052A3F82425054BD3F8D0340E20E7
:1013C00098470BF061FA012007F052FEFBE700BFDF
:1013D0000C000020F8270120000402400000024019
:1013E00080B582B000AF78607B681B68074A934283
:1013F00001D101F001FC7B681B68054A934201D1D1
:1014000017F026FB00BF0837BD4680BD0010004026
:101410000014004080B400AF72B600BFFEE70000C9
:1014200080B582B000AF114B1B6C104A43F0805363
:1014300013640E4B1B6C03F080537B607B680B4B7B
:101440005B6C0A4A43F480435364084B5B6C03F4BF
:1014500080433B603B6800220F216FF0010001F0E8
:10146000EBFC00BF0837BD4680BD00BF003802401E
:1014700080B485B000AF78607B681B680A4A9342ED
:101480000BD10A4B1B6B094A43F480531363074B80
:101490001B6B03F48053FB60FB6800BF1437BD4631
:1014A0005DF8047B704700BF003002400038024006
:1014B00080B58AB000AF786007F1140300221A608B
:1014C0005A609A60DA601A617B681B682F4A9342FF
:1014D00057D12F4B9B6B2E4A43F0020393632C4B47
:1014E0009B6B03F002033B613B69294B1B6B284A52
:1014F00043F002031363264B1B6B03F00203FB60F4
:10150000FB68234B1B6B224A43F004031363204BFD
:101510001B6B03F00403BB60BB6804237B610223E5
:10152000BB610023FB6103233B6209237B6207F15C
:1015300014031946174801F03FFE4FF4C0637B6166
:101540000223BB610023FB6103233B6209237B620F
:1015500007F114031946104801F02EFE40237B6169
:101560000223BB610023FB6103233B620A237B62EE
:1015700007F114031946074801F01EFE102002F07F
:10158000CDF800BF2837BD4680BD00BF001000A0C9
:1015900000380240000402400008024080B582B0DA
:1015A00000AF78607B681B680A4A93420ED10A4BF1
:1015B0009B6B094A23F0020393634421074801F01F
:1015C00097FF4FF4C061064801F092FF00BF083753
:1015D000BD4680BD001000A000380240000402405B
:1015E0000008024080B590B000AF786007F12C038E
:1015F00000221A605A609A60DA601A617B681B6880
:101600006E4A934230D16E4B5B6C6D4A43F480530B
:1016100053646B4B5B6C03F48053BB62BB6A684BD7
:101620001B6B674A43F001031363654B1B6B03F0AD
:1016300001037B627B6AE023FB6202233B6300239E
:101640007B630323BB630523FB6307F12C0319466C
:101650005C4801F0B1FD00220521232001F0ECFBE4
:10166000232001F005FCA4E07B681B68564A9342E6
:101670004DD1534B1B6C524A43F480431364504B7F
:101680001B6C03F480433B623B6A4D4B1B6B4C4A23
:1016900043F0040313634A4B1B6B03F00403FB6129
:1016A000FB69474B1B6B464A43F002031363444BF1
:1016B0001B6B03F00203BB61BB690623FB620223C1
:1016C0003B6300237B630323BB630523FB6307F1B9
:1016D0002C0319463D4801F06FFD4FF48063FB6217
:1016E00002233B6300237B630323BB630523FB636C
:1016F00007F12C031946364801F05EFD0022052152
:10170000242001F099FB242001F0B2FB51E07B681A
:101710001B68304A93424CD1294B1B6C284A43F436
:1017200000431364264B1B6C03F400437B617B690D
:10173000234B1B6B224A43F004031363204B1B6BA8
:1017400003F004033B613B691D4B1B6B1C4A43F0D8
:10175000020313631A4B1B6B03F00203FB60FB686D
:101760004FF40063FB6202233B6300237B6303238C
:10177000BB630623FB6307F12C031946134801F0F2
:101780001BFD2823FB6202233B6300237B630323AF
:10179000BB630623FB6307F12C0319460C4801F0D9
:1017A0000BFD00220521332001F046FB332001F020
:1017B0005FFB00BF4037BD4680BD00BF0030014029
:1017C000003802400000024000380040000802409B
:1017D00000040240003C004080B582B000AF786059
:1017E0007B681B68214A93420DD1214B5B6C204AD8
:1017F00023F480535364E0211E4801F079FE232036
:1018000001F044FB2EE07B681B681B4A934212D117
:10181000174B1B6C164A23F48043136406211748A8
:1018200001F066FE4FF48061154801F061FE24204E
:1018300001F02CFB16E07B681B68124A934211D121
:101840000B4B1B6C0A4A23F4004313644FF40061F2
:101850000A4801F04DFE2821094801F049FE3320D5
:1018600001F014FB00BF0837BD4680BD00300140C9
:1018700000380240000002400038004000080240EA
:1018800000040240003C004080B586B000AF7860A4
:101890007B681B68234A93420CD1234B5B6C224A22
:1018A00043F001035364204B5B6C03F001037B6145
:1018B0007B6932E07B681B681C4A934214D11A4B47
:1018C0001B6C194A43F020031364174B1B6C03F085
:1018D00020033B613B6900220521372001F0ACFA6F
:1018E000372001F0C5FA18E07B681B68104A934264
:1018F00013D10D4B1B6C0C4A43F0400313640A4B8D
:101900001B6C03F04003FB60FB68002205212B20C9
:1019100001F092FA2B2001F0ABFA00BF1837BD4658
:1019200080BD00BF000001400038024000140040AC
:101930000018004080B588B000AF786007F10C0354
:1019400000221A605A609A60DA601A617B681B682C
:10195000114A93421CD1114B1B6B104A43F00103F7
:1019600013630E4B1B6B03F00103BB60BB684FF4AA
:101970000073FB6002233B6100237B610023BB619A
:101980000123FB6107F10C031946054801F014FC23
:1019900000BF2037BD4680BD000001400038024036
:1019A0000000024080B58AB000AF786007F11403F0
:1019B00000221A605A609A60DA601A617B681B68BC
:1019C000324A93425DD1324B1B6C314A43F480134F
:1019D00013642F4B1B6C03F480133B613B692C4B4E
:1019E0001B6B2B4A43F004031363294B1B6B03F05F
:1019F0000403FB60FB68264B1B6B254A43F008037E
:101A00001363234B1B6B03F00803BB60BB684FF4ED
:101A100080737B610223BB610023FB6103233B6274
:101A200007237B6207F1140319461A4801F0C4FB2F
:101A30004FF480537B610223BB610023FB610323CE
:101A40003B6208237B6207F114031946114801F039
:101A5000B3FB04237B610223BB610023FB610323EF
:101A60003B6208237B6207F1140319460A4801F020
:101A7000A3FB00220521352001F0DEF9352001F01D
:101A8000F7F900BF2837BD4680BD00BF00500040B9
:101A90000038024000080240000C024080B58CB0C3
:101AA00000AF78600023FB620023BB6200227968EC
:101AB000362001F0C1F9362001F0DAF91F4B1B6C1A
:101AC0001E4A43F0100313641C4B1B6C03F01003FD
:101AD000FB60FB6807F1100207F11403114618467A
:101AE00002F0DEFE02F0B4FE03465B00FB62FB6A1E
:101AF000134AA2FB03239B0C013BBB62114B124A0E
:101B00001A60104B40F2E732DA600E4ABB6A53604B
:101B10000C4B00221A610B4B00229A60094804F01A
:101B2000E3FA0346002B04D1064804F035FB0346D4
:101B300000E0012318463037BD4680BD0038024022
:101B400083DE1B43742A01200010004080B400AFE4
:101B5000FEE780B400AFFEE780B400AFFEE780B4DC
:101B600000AFFEE780B400AFFEE780B400AF00BF77
:101B7000BD465DF8047B704780B500AF024803F0B6
:101B80008FFF00BF80BD00BF2C29012080B500AFB2
:101B9000024803F085FF00BF80BD00BF7027012011
:101BA00080B500AF024804F04BFD00BF80BD00BF10
:101BB0009029012080B500AF024803F071FF00BFFB
:101BC00080BD00BFF827012080B500AF024805F0B6
:101BD0001FFF00BF80BD00BF5C28012080B500AFA3
:101BE000024804F02DFD00BF80BD00BF742A012013
:101BF00080B500AF024804F023FD00BF80BD00BFE8
:101C0000DC29012080B582B000AF78606423012216
:101C10000649074805F022FD01220449044805F061
:101C2000B0FD00BF0837BD4680BD00BFC02A0120FF
:101C30005C28012080B400AF01231846BD465DF842
:101C4000047B704780B582B000AF7860396029F0BE
:101C500039FA034616221A604FF0FF331846083748
:101C6000BD4680BD80B582B000AF78604FF0FF31D7
:101C70007868FFF7E7FFFEE780B586B000AFF86051
:101C8000B9607A6000237B610AE0AFF3008001460F
:101C9000BB685A1CBA60CAB21A707B6901337B6197
:101CA0007A697B689A42F0DB7B6818461837BD4634
:101CB00080BD80B586B000AFF860B9607A6000235F
:101CC0007B6109E0BB685A1CBA601B781846FEF7B6
:101CD00031FD7B6901337B617A697B689A42F1DB74
:101CE0007B6818461837BD4680BD80B483B000AF0E
:101CF00078604FF0FF3318460C37BD465DF8047B23
:101D0000704780B483B000AF786039603B684FF4AF
:101D100000525A60002318460C37BD465DF8047B1C
:101D2000704780B483B000AF7860012318460C3749
:101D3000BD465DF8047B704780B485B000AFF860A5
:101D4000B9607A60002318461437BD465DF8047BFD
:101D50007047000080B586B000AF7860144A154B1C
:101D6000D31A7B617B693B61134B1B68002B02D14B
:101D7000114B124A1A60104B1A687B6813443A6977
:101D80009A4207D229F09EF903460C221A604FF0BE
:101D9000FF3309E0084B1B68FB60074B1A687B6840
:101DA0001344054A1360FB6818461837BD4680BDCA
:101DB000000004200004000044060020182B01202D
:101DC00080B400AF064BD3F88830054A43F4700363
:101DD000C2F8883000BFBD465DF8047B704700BF85
:101DE00000ED00E0DFF834D00D480E490E4A002324
:101DF00002E0D458C4500433C4188C42F9D30B4ABF
:101E00000B4C002301E013600432A242FBD3FFF726
:101E1000D7FF29F065FAFEF79FFC70470000042009
:101E20000000002028060020B83D030828060020F6
:101E3000182B0120FEE7000080B582B000AF0346FA
:101E4000FB71FB790B4A582101FB03F31344503318
:101E50001868FB79074A582101FB03F313445433F4
:101E60001B880022194601F03FFC00BF0837BD4621
:101E700080BD00BF0C00002080B582B000AF0346DB
:101E8000FB71FB790B4A582101FB03F313445033D8
:101E90001868FB79074A582101FB03F313445433B4
:101EA0001B880122194601F01FFC00BF0837BD4600
:101EB00080BD00BF0C00002080B582B000AF03469B
:101EC000FB71FB790B4A582101FB03F313444033A8
:101ED0001868FB79074A582101FB03F31344443384
:101EE0001B880022194601F0FFFB00BF0837BD46E2
:101EF00080BD00BF0C00002080B582B000AF03465B
:101F0000FB71FB790B4A582101FB03F31344403367
:101F10001868FB79074A582101FB03F31344443343
:101F20001B880122194601F0DFFB00BF0837BD46C0
:101F300080BD00BF0C00002080B582B000AF03461A
:101F4000FB71FB790B4A582101FB03F3134448331F
:101F50001868FB79074A582101FB03F313444C33FB
:101F60001B880022194601F0BFFB00BF0837BD46A1
:101F700080BD00BF0C00002080B582B000AF0346DA
:101F8000FB71FB790B4A582101FB03F313444833DF
:101F90001868FB79074A582101FB03F313444C33BB
:101FA0001B880122194601F09FFB00BF0837BD4680
:101FB00080BD00BF0C00002080B584B000AF034698
:101FC000B9607A60FB73FB7B084A582101FB03F37D
:101FD00013443C3318687B689AB26423B96803F0F1
:101FE000AEF800BF1037BD4680BD00BF0C0000201A
:101FF00080B584B000AF0346B9607A60FB73FB7BA9
:10200000084A582101FB03F313443C3318687B68EA
:102010009AB26423B96803F000FA00BF1037BD46D6
:1020200080BD00BF0C00002080B582B000AF034629
:102030000A46FB711346BB71BB79102B28BF1023D6
:10204000BB71BB79042B38BF0423BB71BB79013B47
:10205000BB71BB791802FB79114A582101FB03F3CC
:1020600013443C331B680246DA60FB790C4A582162
:1020700001FB03F313443C331B68184603F037F8A5
:10208000FB79074A582101FB03F313443C331B68D7
:10209000184602F081FF00BF0837BD4680BD00BF73
:1020A0000C00002080B582B000AF03463960FB71A0
:1020B000FB79114A582101FB03F313443C331B689D
:1020C0003A68DA61FB790C4A582101FB03F31344A7
:1020D0003C331B68184603F00AF8FB79064A58217E
:1020E00001FB03F313443C331B68184602F054FF12
:1020F00000BF0837BD4680BD0C00002080B582B00F
:1021000000AF0346FB710A2000F096FDFB791846EC
:10211000FFF792FE0A2000F08FFDFB791846FFF7CB
:10212000ABFE0A2000F088FD00BF0837BD4680BD29
:1021300080B582B000AF03460A46FB711346BB71FF
:10214000FB791846FFF7B8FEFB791846FFF7F4FE57
:10215000B91DFB7901221846FFF72EFFFB791846BF
:10216000FFF7CAFE00BF0837BD4680BD80B582B00C
:1021700000AF03460A46FB711346BB71FB79184654
:10218000FFF79AFEFB791846FFF7F6FEB91DFB79BB
:1021900001221846FFF710FFFB791846FFF7ACFE47
:1021A00000BF0837BD4680BD80B582B000AF3A6041
:1021B0001A460346FB710B46BB7113467B71FB79D4
:1021C0001846FFF779FEFB791846FFF7B5FEB91DF3
:1021D000FB7901221846FFF7EFFE7A79FB7939681F
:1021E0001846FFF705FFFB791846FFF785FE00BF8D
:1021F0000837BD4680BD90B583B000AF04460846A1
:1022000011461A462346FB710346BB800B467B8072
:1022100013463B80BB889F2B28BF9F239BB2013373
:10222000BB807B884F2B28BF4F239BB21A337B8008
:102230003B889F2B28BF9F239BB201333B803B8B66
:102240004F2B28BF4F239BB21A333B83FB792A21A4
:102250001846FFF76DFFBB881B0A9BB2DAB2FB7909
:1022600011461846FFF782FFBB88DAB2FB791146A8
:102270001846FFF77BFF3B881B0A9BB2DAB2FB795B
:1022800011461846FFF772FF3B88DAB2FB79114618
:102290001846FFF76BFFFB792B211846FFF748FF25
:1022A0007B881B0A9BB2DAB2FB7911461846FFF70E
:1022B0005DFF7B88DAB2FB7911461846FFF756FFBF
:1022C0003B8B1B0A9BB2DAB2FB7911461846FFF72B
:1022D0004DFF3B8BDAB2FB7911461846FFF746FFFC
:1022E000FB792C211846FFF723FF00BF0C37BD46B2
:1022F00090BD80B586B002AF03460A46FB71134617
:10230000BB80F8794F2300939F2300220021FFF721
:1023100072FFFB7910211846FFF786FEFB791846FD
:10232000FFF7CAFDFB791846FFF726FE0023FB6086
:1023300008E0391DFB7901221846FFF73DFEFB68D6
:102340000133FB60FB68B3F5485FF2D3FB791846B5
:10235000FFF7D2FDFB7908211846FFF765FE00BFA5
:102360001037BD4680BD000080B584B000AF034685
:10237000FB71064B1B78002B0AD1044B01221A700B
:10238000FB791846FFF7BAFE02E000BF4A060020BC
:10239000FB7911211846FFF7CBFE782000F04CFCAA
:1023A000FB79B1211846FFF7C3FEFB7905211846DA
:1023B000FFF7DCFEFB793C211846FFF7D7FEFB79DF
:1023C0003C211846FFF7D2FEFB79B2211846FFF7F1
:1023D000AFFEFB7905211846FFF7C8FEFB793C21CB
:1023E0001846FFF7C3FEFB793C211846FFF7BEFEF7
:1023F000FB79B3211846FFF79BFEFB7905211846B0
:10240000FFF7B4FEFB793C211846FFF7AFFEFB79DE
:102410003C211846FFF7AAFEFB7905211846FFF775
:10242000A5FEFB793C211846FFF7A0FEFB793C2175
:102430001846FFF79BFEFB79B4211846FFF778FE9C
:10244000FB7907211846FFF791FEFB79C02118465A
:10245000FFF76EFEFB79E9211846FFF787FEFB794F
:1024600009211846FFF782FEFB7904211846FFF781
:102470007DFEFB79C1211846FFF75AFEFB79C52185
:102480001846FFF773FEFB79C2211846FFF750FE8E
:10249000FB790D211846FFF769FEFB7900211846EC
:1024A000FFF764FEFB79C3211846FFF741FEFB7975
:1024B0008D211846FFF75AFEFB796A211846FFF76F
:1024C00055FEFB79C4211846FFF732FEFB798D21BA
:1024D0001846FFF74BFEFB79EE211846FFF746FE44
:1024E000FB79C5211846FFF723FEFB791521184615
:1024F000FFF73CFEFB7936211846FFF719FEFB7902
:1025000068211846FFF732FEFB7921211846FFF7B4
:102510000FFEFB79E0211846FFF70AFEFB79072141
:102520001846FFF723FEFB790E211846FFF71EFE23
:10253000FB7908211846FFF719FEFB790721184699
:10254000FFF714FEFB7910211846FFF70FFEFB7909
:1025500007211846FFF70AFEFB7902211846FFF70C
:1025600005FEFB7907211846FFF700FEFB790921DC
:102570001846FFF7FBFDFB790F211846FFF7F6FD24
:10258000FB7925211846FFF7F1FDFB793621184626
:10259000FFF7ECFDFB7900211846FFF7E7FDFB791B
:1025A00008211846FFF7E2FDFB7904211846FFF7E2
:1025B000DDFDFB7910211846FFF7D8FDFB79E121FD
:1025C0001846FFF7B5FDFB790A211846FFF7CEFD47
:1025D000FB790D211846FFF7C9FDFB790821184644
:1025E000FFF7C4FDFB7907211846FFF7BFFDFB7914
:1025F0000F211846FFF7BAFDFB7907211846FFF7B0
:10260000B5FDFB7902211846FFF7B0FDFB790721E4
:102610001846FFF7ABFDFB7909211846FFF7A6FD29
:10262000FB790F211846FFF7A1FDFB7925211846FC
:10263000FFF79CFDFB7935211846FFF797FDFB79E5
:1026400000211846FFF792FDFB7909211846FFF794
:102650008DFDFB7904211846FFF788FDFB791021D9
:102660001846FFF783FDFB79FC211846FFF760FD54
:10267000FB79C0211846FFF779FDFB793A2118460E
:10268000FFF756FDFB7905211846FFF76FFDFB7933
:102690002A211846FFF74CFDFB7900211846FFF769
:1026A00065FDFB7901211846FFF760FDFB790021EC
:1026B0001846FFF75BFDFB79A0211846FFF756FD92
:1026C000FB792B211846FFF733FDFB7900211846D3
:1026D000FFF74CFDFB791A211846FFF747FDFB7900
:1026E00000211846FFF742FDFB7969211846FFF7E4
:1026F0003DFDFB7900211846FFF7FBFDFB79292101
:102700001846FFF715FDFB792C211846FFF710FD41
:10271000FB7918211846FFF7C5FC07F10C02F87980
:102720000123DA21FFF740FD07F10C035A1CF87969
:102730000123DB21FFF738FD07F10C039A1CF87920
:102740000123DC21FFF730FDFB7910211846FFF74C
:10275000A9FC00BF1037BD4680BD00BF80B483B068
:1027600000AF0346FB71044AFB79137000BF0C37BE
:10277000BD465DF8047B70474906002080B400AF79
:10278000034B1B781846BD465DF8047B704700BFBD
:102790004906002090B587B002AFF86008461146A0
:1027A0001A4603467B810B463B811346FB801F4B39
:1027B00018787A89FB8813449BB2013B9CB23A8912
:1027C0003B8C13449BB2013B9BB23A8979890093BD
:1027D0002346FFF710FD154B1B7810211846FFF715
:1027E00023FC124B1B781846FFF766FB0F4B1B7838
:1027F0001846FFF7C1FB0D4B1B787A6AF96818463B
:10280000FFF7DAFB094B1B781846FFF775FB074B00
:102810001B7808211846FFF707FC00F009F816F0AE
:1028200011F900BF1437BD4690BD00BF4906002016
:1028300080B400AF034B00221A7000BFBD465DF8A4
:10284000047B70474806002080B400AF034B1B7820
:102850001846BD465DF8047B704700BF480600205F
:1028600080B500AFFFF7F0FF0346184680BD80B586
:1028700086B002AFF860084611461A4603467B81CF
:102880000B463B811346FB80FB883A8B02FB03F32C
:10289000F8883A89798901933B8B00930346F8685D
:1028A000FFF778FF00BF1037BD4680BD80B582B00E
:1028B00000AF354801F02EF800F06EF800F046F950
:1028C0000346012B57D03B1D184600F005F903467F
:1028D000002B52D13B1D03222C49184628F038FD0D
:1028E0000346002B1CD12A4B02221A70284B4FF4AE
:1028F00080725A60264B4FF480529A60244B4FF4FA
:102900008032DA60224B4FF080721A611E4801F06B
:1029100001F800F041F800F0A5F80346002B2ED096
:102920003B1D03221B49184628F012FD0346002BCD
:102930001DD1174B01221A70154B4FF480725A604B
:10294000134B4FF480529A60114B4FF48032DA608F
:102950000F4B4FF480021A610B4800F0DBFF00F0D0
:102960001BF800F07FF80346002B07D108E0084B66
:1029700000221A7002E000BF00E000BFFEE700BFC7
:102980000837BD4680BD00BF282A012088C3020841
:102990004C0600208CC3020880B584B000AF2E4BDB
:1029A0002E4A1A602C4800F0B5FF0346002B01D0D8
:1029B00001234CE02848FEF77BFD294B1B78032BB5
:1029C00003D1254B01225A6002E0234B01225A60B9
:1029D000214B04229A60204B1022DA601E4B4FF4E8
:1029E00080725A611C4B00229A611B4B0022DA61F3
:1029F000194B00221A621A4B1B78002B0FD14FF093
:102A00008073FB60FB6893FAA3F3BB60BB68B3FA07
:102A100083F3DBB2013B1A460F4B1A610EE0104BF9
:102A20001B697B607B6893FAA3F33B603B68B3FA56
:102A300083F3DBB2013B1A46074B1A61064800F0EC
:102A4000EDFE0346002B01D0012300E000231846D1
:102A50001037BD4680BD00BF282A0120001000A00D
:102A60004C06002080B590B000AF194B1B78002BAE
:102A700001D1012328E04FF480733B623B23BB600C
:102A80004FF480637B624FF400537B610023BB6291
:102A90004FF00073FB620823FB6100237B6300237C
:102AA000BB630023FB6300237B6000233B603A464B
:102AB00007F108031946074801F04BF80346002BBD
:102AC00001D0012300E0002318464037BD4680BDF9
:102AD0004C060020282A012080B590B000AF786015
:102AE0004FF480733B629F23BB6000237B62002313
:102AF000BB624FF08073FB620023FB6103233B63E7
:102B000000237B630023BB630023FB6307F10803FF
:102B100041F2883219460C4800F020FF0346002B92
:102B200001D001230BE041F288327968064800F0B9
:102B300073FF0346002B01D0012300E00023184659
:102B40004037BD4680BD00BF282A012080B58EB029
:102B500000AF4FF48073BB6166233B600023FB61D1
:102B600000233B6200237B6200237B610023FB6226
:102B700000233B6300237B633B4641F288321946C6
:102B80000E4800F0EBFE0346002B01D0012311E0BC
:102B900099233B603B4641F288321946074800F0D2
:102BA000DDFE0346002B01D0012303E0962000F058
:102BB00043F8002318463837BD4680BD282A012037
:102BC00080B500AF0B4B1B680A4A43F400731360D7
:102BD000084B1B68074A43F480731360032000F01E
:102BE00020F90F20FEF75AFFFEF71AFC00231846C3
:102BF00080BD00BF003C024080B400AF064B1B7894
:102C00001A46064B1B681344044A136000BFBD46B6
:102C10005DF8047B704700BF38050020C42A0120FE
:102C200080B400AF034B1B681846BD465DF8047BBB
:102C3000704700BFC42A012080B584B000AF78601F
:102C4000FFF7EEFFB8607B68FB60FB68B3F1FF3F06
:102C500005D00A4B1B781A46FB681344FB6000BF83
:102C6000FFF7DEFF0246BB68D31AFA689A42F7D82C
:102C700000BF00BF1037BD4680BD00BF3805002033
:102C800080B485B000AF78607B6803F00703FB6019
:102C90000B4BDB68BB60BA684FF6FF031340BB60A9
:102CA000FB681A02BB681A43064B1343BB60044A15
:102CB000BB68D36000BF1437BD465DF8047B704726
:102CC00000ED00E00000FA0580B400AF044BDB68C3
:102CD0001B0A03F007031846BD465DF8047B7047E6
:102CE00000ED00E080B483B000AF0346FB7197F9BC
:102CF0000730002B0BDBFB7903F01F02074997F924
:102D000007305B09012000FA02F241F8232000BFDE
:102D10000C37BD465DF8047B704700BF00E100E062
:102D200080B483B000AF0346FB7197F90730002BE6
:102D300012DBFB7903F01F020A4997F907305B09A0
:102D4000012000FA02F2203341F82320BFF34F8F15
:102D500000BFBFF36F8F00BF00BF0C37BD465DF8EB
:102D6000047B704700E100E080B483B000AF03460D
:102D70003960FB7197F90730002B0ADB3B68DAB248
:102D80000C4997F907301201D2B20B4483F80023A3
:102D90000AE03B68DAB20849FB7903F00F03043B11
:102DA0001201D2B20B441A7600BF0C37BD465DF853
:102DB000047B704700E100E000ED00E080B489B0E2
:102DC00000AFF860B9607A60FB6803F00703FB614D
:102DD000FB69C3F10703042B28BF0423BB61FB6914
:102DE0000433062B02D9FB69033B00E000237B611F
:102DF0004FF0FF32BB6902FA03F3DA43BB681A40B3
:102E00007B699A404FF0FF317B6901FA03F3D943A4
:102E10007B680B40134318462437BD465DF8047B9E
:102E2000704780B582B000AF78607868FFF728FF00
:102E300000BF0837BD4680BD80B586B000AF0346F1
:102E4000B9607A60FB7300237B61FFF73DFF786117
:102E50007A68B9687869FFF7B1FF024697F90F30D1
:102E600011461846FFF780FF00BF1837BD4680BDEA
:102E700080B582B000AF0346FB7197F90730184662
:102E8000FFF730FF00BF0837BD4680BD80B582B078
:102E900000AF0346FB7197F907301846FFF740FF74
:102EA00000BF0837BD4680BD80B582B000AF7860F6
:102EB0007B68002B01D1012354E07B685B7FDBB290
:102EC000002B05D17B6800221A777868FEF7D0FACC
:102ED0007B6802225A777B681B79002B0CD17B68B8
:102EE0001B68224A5A617B681B689A687B681B686A
:102EF00022F018029A600CE07B6899687B68DB68B6
:102F00001A46786800F034F80346002B01D00123FC
:102F100028E07B685B79002B05D17B681B684FF04C
:102F2000FF321A6104E07B681B687A6812691A61D3
:102F30007B681B689B6823F060017B685A697B682B
:102F40001B680A439A607B681B689B6823F08001BA
:102F50007B689A697B681B680A439A607B680122D8
:102F60005A77002318460837BD4680BDB71DC104F7
:102F700080B487B000AFF860B9607A600023FB7559
:102F80001F233B6100BF3B695A1E3A61002B09D0E9
:102F90003B6903F01F03BA6822FA03F303F001034D
:102FA000002BF0D07B68182B46D801A252F823F0F2
:102FB0003F30000839300008393000083930000847
:102FC000393000083930000839300008393000083D
:102FD0002D30000839300008393000083930000839
:102FE000393000083930000839300008393000081D
:102FF0002130000839300008393000083930000825
:1030000039300008393000083930000839300008FC
:10301000153000083B69062B13D90123FB7510E01E
:103020003B69072B0FD90123FB750CE03B690F2B84
:103030000BD90123FB7508E00123FB7506E000BFF7
:1030400004E000BF02E000BF00E000BFFB7D002BFA
:103050000DD1FB681B68BA685A61FB681B689B68E6
:1030600023F01801FB681B687A680A439A60FB7DAD
:1030700018461C37BD465DF8047B704780B584B0A8
:1030800000AF78607B689B6DFB60FFF7C9FDB8609F
:103090007B6893F83530DBB2022B08D07B68802246
:1030A0005A657B68002283F83420012352E07B6854
:1030B0001B681A687B681B6822F016021A607B681E
:1030C0001B685A697B681B6822F080025A617B6822
:1030D0001B6C002B03D17B689B6C002B07D07B689B
:1030E0001B681A687B681B6822F008021A607B68FC
:1030F0001B681A687B681B6822F001021A6013E0E3
:10310000FFF78EFD0246BB68D31A052B0CD97B68EE
:1031100020225A657B68032283F835207B680022D1
:1031200083F83420032315E07B681B681B6803F0D9
:103130000103002BE4D17B68DB6D3F229A40FB68E2
:103140009A607B68012283F835207B68002283F82F
:103150003420002318461037BD4680BD80B483B0AC
:1031600000AF78607B6893F83530DBB2022B04D077
:103170007B6880225A6501230CE07B68052283F876
:1031800035207B681B681A687B681B6822F0010287
:103190001A60002318460C37BD465DF8047B704763
:1031A00080B483B000AF78607B685B6D18460C37E5
:1031B000BD465DF8047B704780B489B000AF78608D
:1031C00039600023FB6100237B6100233B61002306
:1031D000BB610023FB6169E10122FB6902FA03F391
:1031E0007B613B681B687A6913403B613A697B6984
:1031F0009A4240F058813B685B6803F00303012B5F
:1032000005D03B685B6803F00303022B30D17B6879
:103210009B68BB61FB695B00032202FA03F3DB439B
:10322000BA691340BB613B68DA68FB695B0002FA6C
:1032300003F3BA691343BB617B68BA699A607B6820
:103240005B68BB610122FB6902FA03F3DB43BA69E5
:103250001340BB613B685B681B0903F00102FB691B
:1032600002FA03F3BA691343BB617B68BA695A6017
:103270003B685B6803F00303032B17D07B68DB68B4
:10328000BB61FB695B00032202FA03F3DB43BA690B
:103290001340BB613B689A68FB695B0002FA03F369
:1032A000BA691343BB617B68BA69DA603B685B68E3
:1032B00003F00303022B23D1FB69DA087B68083291
:1032C00053F82230BB61FB6903F007039B000F2218
:1032D00002FA03F3DB43BA691340BB613B681A6926
:1032E000FB6903F007039B0002FA03F3BA69134377
:1032F000BB61FB69DA087B680832B96943F82210C0
:103300007B681B68BB61FB695B00032202FA03F365
:10331000DB43BA691340BB613B685B6803F003029F
:10332000FB695B0002FA03F3BA691343BB617B6874
:10333000BA691A603B685B6803F44033002B00F005
:10334000B280604B5B6C5F4A43F4804353645D4BD7
:103350005B6C03F48043FB60FB685B4AFB699B0882
:10336000023352F82330BB61FB6903F003039B0077
:103370000F2202FA03F3DB43BA691340BB617B6897
:10338000524A93422BD07B68514A934225D07B68A6
:10339000504A93421FD07B684F4A934219D07B68B2
:1033A0004E4A934213D07B684D4A93420DD07B68BE
:1033B0004C4A934207D07B684B4A934201D1072382
:1033C0000EE008230CE006230AE0052308E00423AE
:1033D00006E0032304E0022302E0012300E00023CF
:1033E000FA6902F0030292009340BA691343BB6189
:1033F0003549FB699B080233BA6941F823203B4BEE
:103400009B68BB613B69DB43BA691340BB613B68A6
:103410005B6803F48013002B03D0BA693B69134344
:10342000BB61324ABB699360304BDB68BB613B696F
:10343000DB43BA691340BB613B685B6803F400136C
:10344000002B03D0BA693B691343BB61274ABB69B0
:10345000D360264B5B68BB613B69DB43BA691340B1
:10346000BB613B685B6803F40033002B03D0BA698F
:103470003B691343BB611D4ABB6953601B4B1B680F
:10348000BB613B69DB43BA691340BB613B685B6866
:1034900003F48033002B03D0BA693B691343BB614B
:1034A000124ABB691360FB690133FB61FB690F2B97
:1034B0007FF692AE00BF00BF2437BD465DF8047BA7
:1034C000704700BF00380240003801400000024051
:1034D0000004024000080240000C024000100240BC
:1034E0000014024000180240001C0240003C014051
:1034F00080B487B000AF7860396000233B6100235F
:10350000FB600023BB6000237B61CDE001227B696F
:1035100002FA03F33B613A683B691340FB60FA68C7
:103520003B699A4240F0BD80654A7B699B08023343
:1035300052F82330BB607B6903F003039B000F222A
:1035400002FA03F3BA681340BB607B685D4A93429A
:103550002BD07B685C4A934225D07B685B4A9342C0
:103560001FD07B685A4A934219D07B68594A9342CC
:1035700013D07B68584A93420DD07B68574A9342D8
:1035800007D07B68564A934201D107230EE00823F7
:103590000CE006230AE0052308E0042306E00323E9
:1035A00004E0022302E0012300E000237A6902F034
:1035B000030292009340BA689A4232D1494B1A688A
:1035C000FB68DB43474913400B60464B5A68FB6876
:1035D000DB43444913404B60424BDA68FB68DB43F2
:1035E00040491340CB603F4B9A68FB68DB433D4941
:1035F00013408B607B6903F003039B000F2202FAE8
:1036000003F3BB602E4A7B699B08023352F82310F8
:10361000BB68DA432A487B699B080A40023340F8BA
:1036200023207B681A687B695B00032101FA03F39E
:10363000DB431A407B681A607B69DA087B680832D2
:1036400053F822107B6903F007039B000F2202FA54
:1036500003F3DB437A69D20819407B68083243F8E8
:1036600022107B68DA687B695B00032101FA03F3AF
:10367000DB431A407B68DA607B685A6801217B690A
:1036800001FA03F3DB431A407B685A607B689A684F
:103690007B695B00032101FA03F3DB431A407B687B
:1036A0009A607B6901337B617B690F2B7FF62EAFBC
:1036B00000BF00BF1C37BD465DF8047B704700BFEC
:1036C00000380140000002400004024000080240AF
:1036D000000C02400010024000140240001802409A
:1036E000001C0240003C014080B483B000AF786011
:1036F0000B467B8013467B707B78002B03D07A8847
:103700007B689A6103E07B881A047B689A6100BF3A
:103710000C37BD465DF8047B7047000080B485B06F
:1037200000AF78600B4B5B6C0A4A43F480435364F0
:10373000084B5B6C03F48043FB60FB68064B5A68E4
:1037400005497B6813434B6000BF1437BD465DF8E5
:10375000047B7047003802400038014080B400AF5D
:10376000054B1B68044A43F48073136000BFBD46D9
:103770005DF8047B704700BF0070004080B582B0E8
:1037800000AF00237B60234B1B6C224A43F0805325
:103790001364204B1B6C03F080533B603B681E4B53
:1037A0001B681D4A43F480331360FFF739FA7860D1
:1037B00009E0FFF735FA02467B68D31AB3F57A7F42
:1037C00001D9032322E0144B5B6803F48033B3F583
:1037D000803FEED1104B1B680F4A43F40033136057
:1037E000FFF71EFA786009E0FFF71AFA02467B68D5
:1037F000D31AB3F57A7F01D9032307E0064B5B6840
:1038000003F40033B3F5003FEED100231846083728
:10381000BD4680BD003802400070004080B586B0D3
:1038200002AF7860FFF7FCF9F8607B68002B01D1EC
:10383000012367E07B6893F84130DBB2002B0BD1AA
:103840007B68002283F840207868FDF731FE41F262
:103850008831786800F0DFF97B681B681B6823F407
:10386000F8517B689B68013B1A027B681B680A431E
:103870001A607B689B6C0093FB68002220217868AB
:1038800000F0D7F90346FB72FB7A002B35D17B6839
:103890001B681A681D4B13407A68526811067A68D3
:1038A000D26811437A68D26911437A68126A114367
:1038B0007A6812680B4313607B681B685A68144B64
:1038C00013407A68126911047A68526911437A6860
:1038D000926911437A6812680B4353607B681B68D6
:1038E0001A687B681B6842F001021A607B6800223C
:1038F0005A647B68012283F841207B68002283F8A8
:103900004020FB7A18461037BD4680BD2FFFFF00D0
:10391000FEF8E0FF80B582B000AF78607B68002BD6
:1039200001D1012316E07B681B681A687B681B685D
:1039300022F001021A607868FDF730FE7B680022F1
:103940005A647B68002283F841207B68002283F858
:103950004020002318460837BD4680BD80B588B09A
:1039600002AFF860B9607A60FFF75AF93861FB6816
:1039700093F84030DBB2012B01D1022348E0FB6811
:10398000012283F84020FB6893F84130DBB2012B21
:1039900037D1FB6800225A64FB68022283F8412079
:1039A0007B6800933B6900222021F86800F041F910
:1039B0000346FB75FB7D002B25D10022B968F86812
:1039C00000F06EF9BB685B6A002B15D17B68009331
:1039D0003B6901220221F86800F02BF90346FB75D0
:1039E000FB7D002B0FD1FB681B680222DA60FB68AD
:1039F000012283F8412006E0FB68012283F8412080
:103A000001E00223FB75FB68002283F84020FB7D68
:103A100018461837BD4680BD80B58AB002AFF86041
:103A2000B9607A600023FB77FFF7FAF8B861FB68AA
:103A30001B689B697B61FB681B6820333B61FB68EB
:103A400093F84030DBB2012B01D102237DE0FB680B
:103A5000012283F84020FB6893F84130DBB2012B50
:103A60006CD1FB6800225A64BB68002B5DD0FB68F8
:103A7000222283F84120FB681B681B695A1CFB68E3
:103A80009A63FB681B681B695A1CFB685A63FB68D6
:103A9000BA681A63FB681B685B6923F04062FB68C5
:103AA0001B6842F080625A61FB681B687A699A6100
:103AB0001CE07B680093BB6901220621F86800F0D6
:103AC000B8F80346FB77FB7F002B14D1FB681B6B18
:103AD0003A691278D2B21A70FB681B6B5A1CFB68E9
:103AE0001A63FB689B6B5A1EFB689A63FB689B6BAF
:103AF000002BDED100E000BFFB7F002B10D17B68E4
:103B00000093BB6901220221F86800F092F8034695
:103B1000FB77FB7F002B03D1FB681B680222DA6076
:103B2000FB68012283F841200AE0FB685B6C43F0EC
:103B30000802FB685A640123FB7701E00223FB774C
:103B4000FB68002283F84020FB7F18462037BD46E3
:103B500080BD80B588B002AFF860B9607A60FFF7C9
:103B60005FF83861FB6893F84030DBB2012B01D17C
:103B700002234CE0FB68012283F84020FB6893F8A5
:103B80004130DBB2012B3BD1FB6800225A64FB6859
:103B9000822283F84120FB689B6C00933B690022E2
:103BA0002021F86800F045F80346FB75FB7D002BEB
:103BB00028D1FB681B681B6823F008017B685A68E2
:103BC000FB681B680A431A607B685B68082B10D18E
:103BD000FB681B687A6812681A63FB681B6810220E
:103BE000DA60FB681B681A68FB681B6842F4801285
:103BF0001A604FF04062B968F86800F051F801E0CF
:103C00000223FB75FB68002283F84020FB7D1846E9
:103C10001837BD4680BD80B483B000AF786039608E
:103C20007B683A689A6400BF0C37BD465DF8047B38
:103C3000704780B584B000AFF860B9603B60134650
:103C4000FB711AE0BB69B3F1FF3F16D0FEF7E8FF46
:103C500002463B68D31ABA699A4202D3BB69002B69
:103C60000BD1FB68042283F84120FB685B6C43F0B6
:103C70000102FB685A6401230EE0FB681B689A6826
:103C8000BB681340002B14BF01230023DBB21A468C
:103C9000FB799A42D6D1002318461037BD4680BD25
:103CA00080B485B000AFF860B9607A60BB685B6AC9
:103CB000002B09D07B68B3F1406F05D0BB689A6ACE
:103CC000FB681B68013A1A61BB689B69002B00F016
:103CD000B980BB681B6A002B5FD0FB681B68BA68A1
:103CE0009268DA61BB68DB69002B31D0BB68DA6AA5
:103CF000BB681B6B1A43BB685B6B1A43BB685B6A90
:103D00001A43BB685B699B041A43BB681B691A436F
:103D1000BB681B6A1A43BB68DB681A43BB68DB6974
:103D20001A43BB689B691A43BB681B6842EA0301DC
:103D3000FB681B687A680A435A617B68B3F1406F7D
:103D400000F02E81FB681B68BA6852689A6127E10F
:103D5000BB68DA6ABB681B6B1A43BB685B6B1A43B0
:103D6000BB685B6A1A43BB685B699B041A43BB6808
:103D70001B691A43BB681B6A1A43BB68DB691A4399
:103D8000BB689B691A43BB681B6842EA0301FB6876
:103D90001B687A680A435A6102E1BB68DB69002B41
:103DA0002ED0BB68DA6ABB681B6B1A43BB685B6BBF
:103DB0001A43BB685B6A1A43BB685B699B041A437E
:103DC000BB681B6A1A43BB68DB681A43BB68DB69C4
:103DD0001A43BB689B691A43BB681B6842EA03012C
:103DE000FB681B687A680A435A617B68B3F1406FCD
:103DF00000F0D680FB681B68BA6852689A61CFE011
:103E0000BB68DA6ABB681B6B1A43BB685B6B1A43FF
:103E1000BB685B6A1A43BB685B699B041A43BB6857
:103E20001B6A1A43BB68DB691A43BB689B691A4368
:103E3000BB681B6842EA0301FB681B687A680A4397
:103E40005A61ADE0BB681B6A002B58D0FB681B6849
:103E5000BA689268DA61BB68DB69002B2DD0BB6859
:103E6000DA6ABB681B6B1A43BB685B6B1A43BB689F
:103E70005B6A1A43BB685B699B041A43BB681B6996
:103E80001A43BB681B6A1A43BB68DB681A43BB68EA
:103E9000DB691A43BB689B6942EA0301FB681B6844
:103EA0007A680A435A617B68B3F1406F78D0FB6847
:103EB0001B68BA6852689A6172E0BB68DA6ABB68CC
:103EC0001B6B1A43BB685B6B1A43BB685B6A1A4384
:103ED000BB685B699B041A43BB681B691A43BB68D8
:103EE0001B6A1A43BB68DB691A43BB689B6942EAD9
:103EF0000301FB681B687A680A435A6150E0BB689B
:103F0000DB69002B2AD0BB68DA6ABB681B6B1A43DB
:103F1000BB685B6B1A43BB685B6A1A43BB685B692F
:103F20009B041A43BB681B6A1A43BB68DB681A43CD
:103F3000BB68DB691A43BB689B6942EA0301FB6803
:103F40001B687A680A435A617B68B3F1406F27D0D7
:103F5000FB681B68BA6852689A6121E0BB685B6ABB
:103F6000002B1DD0BB68DA6ABB681B6B1A43BB68A9
:103F70005B6B1A43BB685B6A1A43BB685B699B0453
:103F80001A43BB681B6A1A43BB68DB691A43BB68E8
:103F90009B6942EA0301FB681B687A680A435A611D
:103FA00000BF1437BD465DF8047B704780B586B00E
:103FB00000AF78600023FB757B68002B01D10123E3
:103FC00091E27B681B6803F00103002B00F08780FF
:103FD000964B9B6803F00C03042B0CD0934B9B680F
:103FE00003F00C03082B12D1904B5B6803F48003A1
:103FF000B3F5800F0BD18D4B1B6803F40033002BFE
:104000006CD07B685B68002B68D101236BE27B6816
:104010005B68B3F5803F06D1844B1B68834A43F449
:10402000803313602EE07B685B68002B0CD17F4BE4
:104030001B687E4A23F4803313607C4B1B687B4AE9
:1040400023F4802313601DE07B685B68B3F5A02F29
:104050000CD1764B1B68754A43F480231360734B75
:104060001B68724A43F4803313600BE06F4B1B688C
:104070006E4A23F4803313606C4B1B686B4A23F445
:10408000802313607B685B68002B13D0FEF7C8FDAC
:10409000386108E0FEF7C4FD02463B69D31A642B81
:1040A00001D903231FE2614B1B6803F40033002B8B
:1040B000F0D014E0FEF7B4FD386108E0FEF7B0FD83
:1040C00002463B69D31A642B01D903230BE2574BF9
:1040D0001B6803F40033002BF0D100E000BF7B68C5
:1040E0001B6803F00203002B69D0504B9B6803F060
:1040F0000C03002B0BD04D4B9B6803F00C03082BDB
:104100001CD14A4B5B6803F48003002B16D1474B4C
:104110001B6803F00203002B05D07B68DB68012BD2
:1041200001D00123DFE1414B1B6823F0F8027B68DB
:104130001B69DB003D4913430B6040E07B68DB6893
:10414000002B23D0394B1B68384A43F0010313601E
:10415000FEF766FD386108E0FEF762FD02463B6946
:10416000D31A022B01D90323BDE1304B1B6803F0A6
:104170000203002BF0D02D4B1B6823F0F8027B6864
:104180001B69DB00294913430B6018E0274B1B68B0
:10419000264A23F001031360FEF742FD386108E070
:1041A000FEF73EFD02463B69D31A022B01D90323D9
:1041B00099E11E4B1B6803F00203002BF0D17B68D2
:1041C0001B6803F00803002B38D07B685B69002B69
:1041D00019D0164B5B6F154A43F001035367FEF786
:1041E0001FFD386108E0FEF71BFD02463B69D31A4C
:1041F000022B01D9032376E10C4B5B6F03F0020322
:10420000002BF0D01AE0094B5B6F084A23F0010342
:104210005367FEF705FD38610AE0FEF701FD02462F
:104220003B69D31A022B03D903235CE10038024017
:10423000914B5B6F03F00203002BEED17B681B6890
:1042400003F00403002B00F0A4808B4B1B6C03F0E5
:104250008053002B0DD1884B1B6C874A43F0805351
:104260001364854B1B6C03F08053BB60BB68012358
:10427000FB75824B1B6803F48073002B18D17F4BB6
:104280001B687E4A43F480731360FEF7C9FC3861F3
:1042900008E0FEF7C5FC02463B69D31A642B01D93E
:1042A000032320E1754B1B6803F48073002BF0D0CF
:1042B0007B689B68012B06D16F4B1B6F6E4A43F0E6
:1042C000010313672DE07B689B68002B0CD16A4BC0
:1042D0001B6F694A23F001031367674B1B6F664A24
:1042E00023F0040313671CE07B689B68052B0CD14B
:1042F000614B1B6F604A43F0040313675E4B1B6FF7
:104300005D4A43F0010313670BE05B4B1B6F5A4A96
:1043100023F001031367584B1B6F574A23F0040324
:1043200013677B689B68002B15D0FEF779FC38611A
:104330000AE0FEF775FC02463B69D31A41F2883267
:10434000934201D90323CEE04B4B1B6F03F00203D2
:10435000002BEED014E0FEF763FC38610AE0FEF7B4
:104360005FFC02463B69D31A41F28832934201D97D
:104370000323B8E0404B1B6F03F00203002BEED188
:10438000FB7D012B05D13C4B1B6C3B4A23F080533A
:1043900013647B689B69002B00F0A480364B9B68FC
:1043A00003F00C03082B6BD07B689B69022B49D16F
:1043B000314B1B68304A23F080731360FEF730FCEA
:1043C000386108E0FEF72CFC02463B69D31A022B49
:1043D00001D9032387E0284B1B6803F00073002BEF
:1043E000F0D17B68DA697B681B6A1A437B685B6A79
:1043F0009B011A437B689B6A5B08013B1B041A43C1
:104400007B68DB6A1B0613431B4A43F0005353606F
:10441000194B1B68184A43F080731360FEF700FCC9
:10442000386108E0FEF7FCFB02463B69D31A022B19
:1044300001D9032357E0104B1B6803F00073002BD6
:10444000F0D04FE00C4B1B680B4A23F080731360D5
:10445000FEF7E6FB386108E0FEF7E2FB02463B6947
:10446000D31A022B01D903233DE0034B1B6803F051
:104470000073002BF0D135E000380240007000409E
:104480001B4B5B68FB607B689B69012B28D0FB683A
:1044900003F480027B68DB699A4221D1FB6803F058
:1044A0003F027B681B6A9A421AD1FA6847F6C073CA
:1044B00013407A68526A9201934211D1FB6803F467
:1044C00040327B689B6A5B08013B1B049A4207D120
:1044D000FB6803F070627B68DB6A1B069A4201D0BE
:1044E000012300E0002318461837BD4680BD00BFF9
:1044F0000038024080B584B000AF78603960002396
:10450000FB607B68002B01D10123D0E06A4B1B6864
:1045100003F00F033A689A4210D9674B1B6823F0E7
:104520000F0265493B6813430B60634B1B6803F044
:104530000F033A689A4201D00123B8E07B681B68F8
:1045400003F00203002B20D07B681B6803F00403F8
:10455000002B05D0594B9B68584A43F4E0539360B5
:104560007B681B6803F00803002B05D0534B9B6846
:10457000524A43F460439360504B9B6823F0F0022F
:104580007B689B684D4913438B607B681B6803F015
:104590000103002B40D07B685B68012B07D1474BA0
:1045A0001B6803F40033002B15D101237FE07B68E7
:1045B0005B68022B07D1414B1B6803F00073002B93
:1045C00009D1012373E03D4B1B6803F00203002B6C
:1045D00001D101236BE0394B9B6823F003027B6818
:1045E0005B68364913438B60FEF71AFBF8600AE0FC
:1045F000FEF716FB0246FB68D31A41F2883293425B
:1046000001D9032353E02D4B9B6803F00C027B6818
:104610005B689B009A42EBD1274B1B6803F00F03AA
:104620003A689A4210D2244B1B6823F00F022249A9
:104630003B6813430B60204B1B6803F00F033A6881
:104640009A4201D0012332E07B681B6803F0040327
:10465000002B08D0194B9B6823F4E0527B68DB6881
:10466000164913438B607B681B6803F00803002B1B
:1046700009D0124B9B6823F460427B681B69DB0006
:104680000E4913438B6000F021F802460B4B9B68E8
:104690001B0903F00F030A49CB5C22FA03F3094A12
:1046A0001360094B1B681846FDF7F8F900231846FC
:1046B0001037BD4680BD00BF003C024000380240BC
:1046C00004FF02080800002034050020B0B584B0C3
:1046D00000AF002179600021F960002139600021DC
:1046E000B9605249896801F00C0108290DD00829E8
:1046F00000F29480002902D0042903D08EE04C4BB4
:10470000BB608EE04B4BBB608BE04849496801F0D1
:104710003F0179604549496801F48001002924D0AE
:1047200042494968890908464FF0000140F2FF14E8
:104730004FF0000500EA040201EA05033D4901FBD0
:1047400003F0002101FB02F144183A49A2FB0101E8
:10475000631819467B681A464FF00003FBF7B0FD5B
:1047600002460B461346FB604AE0304B5B689B09F0
:104770001A464FF0000340F2FF104FF0000102EA2A
:10478000000403EA0105204629464FF000024FF0DD
:1047900000034B0143EAD063420110461946001B57
:1047A00061EB05014FF000024FF000038B0143EA7B
:1047B00090638201121A63EB01034FF000004FF087
:1047C0000001D90041EA5271D00002460B4612198D
:1047D00045EB03034FF000004FF00001990241EA5E
:1047E0009251900202460B46104619467B681A46C3
:1047F0004FF00003FBF764FD02460B461346FB60D7
:104800000A4B5B681B0C03F0030301335B003B6046
:10481000FA683B68B2FBF3F3BB6002E0044BBB6099
:1048200000BFBB6818461037BD46B0BD0038024017
:104830000024F400001BB70080B400AF034B1B68DA
:104840001846BD465DF8047B704700BF0800002095
:1048500080B500AFFFF7F0FF0246054B9B689B0A4F
:1048600003F007030349CB5C22FA03F3184680BD2B
:104870000038024014FF020880B500AFFFF7DCFFEC
:104880000246054B9B685B0B03F007030349CB5CB7
:1048900022FA03F3184680BD0038024014FF0208D4
:1048A00080B483B000AF786039607B680F221A60F3
:1048B000124B9B6803F003027B685A600F4B9B68A6
:1048C00003F0F0027B689A600C4B9B6803F4E052A3
:1048D0007B68DA60094B9B68DB0803F4E0527B6875
:1048E0001A61074B1B6803F00F023B681A6000BF98
:1048F0000C37BD465DF8047B704700BF00380240AE
:10490000003C024080B588B000AF786000237B6136
:1049100000233B610023FB610023BB617B681B68B4
:1049200003F00103002B12D0654B9B68644A23F40B
:1049300000039360624B9A687B68DB6A60491343AB
:104940008B607B68DB6A002B01D10123FB617B68F4
:104950001B6803F40023002B17D0594BD3F88C307D
:1049600023F440127B685B6B55491343C1F88C30CC
:104970007B685B6BB3F5801F01D10123FB617B6812
:104980005B6B002B01D10123BB617B681B6803F4C7
:104990008013002B17D04A4BD3F88C3023F44002FD
:1049A0007B689B6B46491343C1F88C307B689B6BDB
:1049B000B3F5800F01D10123FB617B689B6B002B5A
:1049C00001D10123BB617B681B6803F02003002B2E
:1049D00000F08B803A4B1B6C394A43F080531364D0
:1049E000374B1B6C03F08053FB60FB68354B1B6837
:1049F000344A43F480731360FEF712F9786108E0DB
:104A0000FEF70EF902467B69D31A642B01D9032302
:104A1000BCE22C4B1B6803F48073002BF0D0284BB6
:104A20001B6F03F440733B613B69002B35D07B68FF
:104A30009B6A03F440733A699A422ED0204B1B6F55
:104A400023F440733B611E4B1B6F1D4A43F48033BC
:104A500013671B4B1B6F1A4A23F480331367184AE2
:104A60003B691367164B1B6F03F00103012B14D135
:104A7000FEF7D6F878610AE0FEF7D2F802467B69C5
:104A8000D31A41F28832934201D903237EE20C4BC0
:104A90001B6F03F00203002BEED07B689B6A03F4CC
:104AA0004073B3F5407F11D1054B9B6823F4F81296
:104AB0007B68996A044B0B40014913438B600BE000
:104AC0000038024000700040FFFCFF0FA44B9B68C1
:104AD000A34A23F4F8139360A14B1A6F7B689B6A77
:104AE000C3F30B039E4913430B677B681B6803F0FA
:104AF0001003002B10D09A4BD3F88C30984A23F037
:104B00008073C2F88C30964BD3F88C207B681B6B7B
:104B100093491343C1F88C307B681B6803F48043CE
:104B2000002B0AD08E4BD3F8903023F440327B68B0
:104B3000DB6D8B491343C1F890307B681B6803F42D
:104B40000043002B0AD0864BD3F8903023F4402248
:104B50007B681B6E82491343C1F890307B681B68E9
:104B600003F48033002B0AD07D4BD3F8903023F42C
:104B700040127B685B6E7A491343C1F890307B68C2
:104B80001B6803F04003002B0AD0754BD3F890301C
:104B900023F003027B68DB6B71491343C1F890304B
:104BA0007B681B6803F08003002B0AD06C4BD3F8A2
:104BB000903023F00C027B681B6C69491343C1F8E9
:104BC00090307B681B6803F48073002B0AD0644B21
:104BD000D3F8903023F030027B685B6C604913435C
:104BE000C1F890307B681B6803F40073002B0AD077
:104BF0005B4BD3F8903023F0C0027B689B6C584924
:104C00001343C1F890307B681B6803F48063002B6A
:104C10000AD0534BD3F8903023F440727B68DB6C9E
:104C20004F491343C1F890307B681B6803F400635D
:104C3000002B0AD04A4BD3F8903023F440627B68B3
:104C40001B6D47491343C1F890307B681B6803F420
:104C50008053002B0AD0424BD3F8903023F44052BB
:104C60007B685B6D3E491343C1F890307B681B68DD
:104C700003F40053002B0AD0394BD3F8903023F4BF
:104C800040427B689B6D36491343C1F890307B6886
:104C90001B6803F40013002B11D0314BD3F8903074
:104CA00023F000627B685B6F2D491343C1F890309D
:104CB0007B685B6FB3F1006F01D10123BB617B683F
:104CC0001B6803F48023002B0AD0254BD3F89030C7
:104CD00023F040727B68DB6E21491343C1F89030AA
:104CE0007B681B6803F40003002B0AD01C4BD3F82D
:104CF000903023F080527B689B6F19491343C1F8B1
:104D000090307B681B6803F08063002B0AD0144B43
:104D1000D3F8903023F000527B68DB6F10491343C7
:104D2000C1F89030FB69012B06D07B681B6803F04B
:104D30000073002B00F09D80094B1B68084A23F08C
:104D400080631360FDF76CFF78610BE0FDF768FF8F
:104D500002467B69D31A642B04D9032316E100BFF2
:104D6000003802408B4B1B6803F00063002BEDD131
:104D70007B681B6803F00103002B17D07B68DB6A9C
:104D8000002B13D1834BD3F884301B0E03F00F0399
:104D90003B617B685B689A013B691B061A437B6831
:104DA0009B681B077B491343C1F884307B681B68F1
:104DB00003F40023002B04D07B685B6BB3F5801FEA
:104DC0000AD07B681B6803F48013002B24D07B6817
:104DD0009B6BB3F5800F1FD16E4BD3F884301B0F44
:104DE00003F007033B617B685B689A017B68DB68C3
:104DF0001B061A433B691B0766491343C1F88430FD
:104E0000644BD3F88C3023F01F027B68DB69013BD5
:104E100060491343C1F88C307B681B6803F0007352
:104E2000002B0DD07B685B689A017B68DB681B06F2
:104E30001A437B689B681B0756491343C1F88430AB
:104E4000544B1B68534A43F080631360FDF7E8FE40
:104E5000786108E0FDF7E4FE02467B69D31A642B13
:104E600001D9032392E04B4B1B6803F00063002B36
:104E7000F0D0BB69012B40F08880464B1B68454A47
:104E800023F080531360FDF7CBFE786108E0FDF757
:104E9000C7FE02467B69D31A642B01D9032375E050
:104EA0003C4B1B6803F00053B3F1005FEFD07B680D
:104EB0001B6803F40023002B03D07B685B6B002B83
:104EC00009D07B681B6803F48013002B24D07B6817
:104ED0009B6B002B20D12F4BD3F888301B0C03F099
:104EE00003033B617B681B699A013B691B041A43FE
:104EF0007B685B691B0627491343C1F88830254B43
:104F0000D3F88C3023F4F8527B681B6A013B1B02F8
:104F100020491343C1F88C307B681B6803F40013ED
:104F2000002B18D07B685B6FB3F1006F13D1194B66
:104F3000D3F888301B0E03F00F033B617B681B69BD
:104F40009A017B689B691B041A433B691B06114944
:104F50001343C1F888300F4B1B680E4A43F080534F
:104F60001360FDF75DFE786108E0FDF759FE02462B
:104F70007B69D31A642B01D9032307E0054B1B6817
:104F800003F00053B3F1005FEFD100231846203740
:104F9000BD4680BD0038024080B584B000AF786067
:104FA0007B68002B01D101239DE07B685B6A002BAD
:104FB00008D17B685B68B3F5827F09D07B680022EB
:104FC000DA6105E07B6800221A617B6800225A6181
:104FD0007B6800229A627B6893F85D30DBB2002B1D
:104FE00006D17B68002283F85C207868FCF7FAFA27
:104FF0007B68022283F85D207B681B681A687B68E7
:105000001B6822F040021A607B68DB68B3F5E06F32
:1050100002D90023FB6002E04FF48053FB607B6801
:10502000DB68B3F5706F07D07B68DB68B3F5E06FC2
:1050300002D07B6800229A627B685B6803F482720C
:105040007B689B6803F404431A437B681B6903F085
:1050500002031A437B685B6903F001031A437B6810
:105060009B6903F400731A437B68DB6903F0380320
:105070001A437B681B6A03F0800342EA03017B68E2
:105080009B6A03F400527B681B680A431A607B68C2
:105090009B691B0C03F004027B685B6A03F010033E
:1050A0001A437B685B6B03F008031A437B68DB6879
:1050B00003F4706342EA0301FB6803F480527B68E7
:1050C0001B680A435A607B681B68DA697B681B6847
:1050D00022F40062DA617B6800221A667B68012292
:1050E00083F85D20002318461037BD4680BD80B58B
:1050F00082B000AF78607B68002B01D101231AE0F9
:105100007B68022283F85D207B681B681A687B68D5
:105110001B6822F040021A607868FCF75DFB7B6830
:1051200000221A667B68002283F85D207B680022DB
:1051300083F85C20002318460837BD4680BD80B543
:1051400088B000AFF860B9603B601346FB80002375
:10515000FB77FB6893F85C30012B01D1022358E107
:10516000FB68012283F85C20FDF75AFDB861FB88DB
:10517000FB82FB6893F85D30DBB2012B02D0022387
:10518000FB773DE1BB68002B02D0FB88002B02D1EE
:105190000123FB7734E1FB68032283F85D20FB6881
:1051A00000221A66FB68BA689A63FB68FA889A87D5
:1051B000FB68FA88DA87FB6800221A64FB68002221
:1051C000A3F84420FB680022A3F84620FB680022D5
:1051D0001A65FB680022DA64FB689B68B3F5004F30
:1051E0000FD1FB681B681A68FB681B6822F040023D
:1051F0001A60FB681B681A68FB681B6842F48042EF
:105200001A60FB681B681B6803F04003402B07D043
:10521000FB681B681A68FB681B6842F040021A6052
:10522000FB68DB68B3F5E06F4BD9FB685B68002B6C
:1052300002D0FB8A012B3ED1FB689B6B1A88FB686E
:105240001B68DA60FB689B6B9A1CFB689A63FB68BF
:10525000DB8F9BB2013B9AB2FB68DA872BE0FB68DD
:105260001B689B6803F00203022B12D1FB689B6B47
:105270001A88FB681B68DA60FB689B6B9A1CFB68EA
:105280009A63FB68DB8F9BB2013B9AB2FB68DA87BB
:1052900011E0FDF7C5FC0246BB69D31A3A689A4291
:1052A00003D83B68B3F1FF3F02D13B68002B02D12A
:1052B0000323FB77A4E0FB68DB8F9BB2002BCED1EE
:1052C0007CE0FB685B68002B02D0FB8A012B70D16D
:1052D000FB68DB8F9BB2012B12D9FB689B6B1A8892
:1052E000FB681B68DA60FB689B6B9A1CFB689A631F
:1052F000FB68DB8F9BB2023B9AB2FB68DA8758E00F
:10530000FB689A6BFB681B680C3312781A70FB6899
:105310009B6B5A1CFB689A63FB68DB8F9BB2013B5B
:105320009AB2FB68DA8744E0FB681B689B6803F06D
:105330000203022B2BD1FB68DB8F9BB2012B12D90E
:10534000FB689B6B1A88FB681B68DA60FB689B6BC9
:105350009A1CFB689A63FB68DB8F9BB2023B9AB294
:10536000FB68DA8725E0FB689A6BFB681B680C33E7
:1053700012781A70FB689B6B5A1CFB689A63FB6877
:10538000DB8F9BB2013B9AB2FB68DA8711E0FDF735
:1053900047FC0246BB69D31A3A689A4203D83B6875
:1053A000B3F1FF3F02D13B68002B02D10323FB770F
:1053B00026E0FB68DB8F9BB2002BB5D1BA69396858
:1053C000F86800F027FE0346002B02D0FB6820227D
:1053D0001A66FB689B68002B0AD100233B61FB68BF
:1053E0001B68DB683B61FB681B689B683B613B6932
:1053F000FB681B6E002B02D00123FB7700E000BF8F
:10540000FB68012283F85D20FB68002283F85C20A2
:10541000FB7F18462037BD4680BD80B588B002AFFF
:10542000F860B9603B601346FB800023FB75FB68A6
:105430005B68B3F5827F12D1FB689B68002B0ED1AD
:10544000FB68042283F85D20FA883B6800931346CA
:10545000BA68B968F86800F010F9034609E1FB681A
:1054600093F85C30012B01D1022302E1FB68012299
:1054700083F85C20FDF7D4FB3861FB6893F85D305E
:10548000DBB2012B02D00223FB75E9E0BB68002BE5
:1054900002D0FB88002B02D10123FB75E0E0FB6802
:1054A000042283F85D20FB6800221A66FB68BA6854
:1054B0001A64FB68FA88A3F84420FB68FA88A3F80A
:1054C0004620FB6800229A63FB6800229A87FB68EB
:1054D0000022DA87FB680022DA64FB6800221A6582
:1054E000FB68DB68B3F5E06F08D9FB681B685A6896
:1054F000FB681B6822F480525A6007E0FB681B6857
:105500005A68FB681B6842F480525A60FB689B68CB
:10551000B3F5004F0FD1FB681B681A68FB681B6866
:1055200022F040021A60FB681B681A68FB681B685F
:1055300022F480421A60FB681B681B6803F040037A
:10554000402B07D0FB681B681A68FB681B6842F099
:1055500040021A60FB68DB68B3F5E06F67D830E0A3
:10556000FB681B689B6803F00103012B17D1FB68E4
:105570001B6803F10C02FB681B6C1278D2B21A7024
:10558000FB681B6C5A1CFB681A64FB68B3F8463056
:105590009BB2013B9AB2FB68A3F8462011E0FDF7ED
:1055A0003FFB02463B69D31A3A689A4203D83B68EC
:1055B000B3F1FF3F02D13B68002B02D10323FB75FF
:1055C0004EE0FB68B3F846309BB2002BC8D134E004
:1055D000FB681B689B6803F00103012B15D1FB6876
:1055E0001B68DA68FB681B6C92B21A80FB681B6C44
:1055F0009A1CFB681A64FB68B3F846309BB2013B07
:105600009AB2FB68A3F8462011E0FDF709FB0246B9
:105610003B69D31A3A689A4203D83B68B3F1FF3F1B
:1056200002D13B68002B02D10323FB7518E0FB6815
:10563000B3F846309BB2002BCAD13A693968F86892
:1056400000F06CFC0346002B02D0FB6820221A6697
:10565000FB681B6E002B02D00123FB7500E000BF2E
:10566000FB68012283F85D20FB68002283F85C2040
:10567000FB7D18461837BD4680BD80B58AB000AFA7
:10568000F860B9607A607B8001237B62002387F831
:105690002330FB6893F85C30012B01D10223FBE13E
:1056A000FB68012283F85C20FDF7BAFAF861FB6819
:1056B00093F85D30FB76FB685B687B617B887B825F
:1056C0007B883B82FB7E012B0ED07B69B3F5827F0A
:1056D00006D1FB689B68002B02D1FB7E042B03D014
:1056E000022387F82330CDE1BB68002B05D07B680F
:1056F000002B02D07B88002B03D1012387F82330B5
:10570000C0E1FB6893F85D30DBB2042B03D0FB688B
:10571000052283F85D20FB6800221A66FB687A6820
:105720001A64FB687A88A3F84620FB687A88A3F895
:105730004420FB68BA689A63FB687A88DA87FB685A
:105740007A889A87FB680022DA64FB6800221A656F
:10575000FB68DB68B3F5E06F02D83B8A012B08D900
:10576000FB681B685A68FB681B6822F480525A6009
:1057700007E0FB681B685A68FB681B6842F48052AC
:105780005A60FB681B681B6803F04003402B07D07E
:10579000FB681B681A68FB681B6842F040021A60CD
:1057A000FB68DB68B3F5E06F7CD9FB685B68002BB6
:1057B00002D07B8A012B69D1FB689B6B1A88FB683E
:1057C0001B68DA60FB689B6B9A1CFB689A63FB683A
:1057D000DB8F9BB2013B9AB2FB68DA8756E0FB682D
:1057E0001B689B6803F00203022B1BD1FB68DB8F55
:1057F0009BB2002B16D07B6A012B13D1FB689B6BED
:105800001A88FB681B68DA60FB689B6B9A1CFB6854
:105810009A63FB68DB8F9BB2013B9AB2FB68DA8725
:1058200000237B62FB681B689B6803F00103012B6C
:105830001CD1FB68B3F846309BB2002B16D0FB6836
:105840001B68DA68FB681B6C92B21A80FB681B6CE1
:105850009A1CFB681A64FB68B3F846309BB2013BA4
:105860009AB2FB68A3F8462001237B62FDF7D8F9C2
:105870000246FB69D31A3A6B9A4207D83B6BB3F1E5
:10588000FF3F03D0032387F82330FBE0FB68DB8F67
:105890009BB2002BA3D1FB68B3F846309BB2002B20
:1058A0009DD1DFE0FB685B68002B03D07B8A012B76
:1058B00040F0CB80FB68DB8F9BB2012B12D9FB68D9
:1058C0009B6B1A88FB681B68DA60FB689B6B9A1CF1
:1058D000FB689A63FB68DB8F9BB2023B9AB2FB6862
:1058E000DA87B2E0FB689A6BFB681B680C331278AE
:1058F0001A70FB689B6B5A1CFB689A63FB68DB8F12
:105900009BB2013B9AB2FB68DA879EE0FB681B689A
:105910009B6803F00203022B34D1FB68DB8F9BB240
:10592000002B2FD07B6A012B2CD1FB68DB8F9BB225
:10593000012B12D9FB689B6B1A88FB681B68DA6025
:10594000FB689B6B9A1CFB689A63FB68DB8F9BB2BE
:10595000023B9AB2FB68DA8712E0FB689A6BFB683D
:105960001B680C3312781A70FB689B6B5A1CFB681F
:105970009A63FB68DB8F9BB2013B9AB2FB68DA87C4
:1059800000237B62FB681B689B6803F00103012B0B
:1059900048D1FB68B3F846309BB2002B42D0FB687D
:1059A000B3F846309BB2012B23D9FB681B68DA6839
:1059B000FB681B6C92B21A80FB681B6C9A1CFB681C
:1059C0001A64FB68B3F846309BB2023B9AB2FB689C
:1059D000A3F84620FB68B3F846309BB2012B1FD8D2
:1059E000FB681B685A68FB681B6842F480525A6067
:1059F00016E0FB681B6803F10C02FB681B6C127855
:105A0000D2B21A70FB681B6C5A1CFB681A64FB68E4
:105A1000B3F846309BB2013B9AB2FB68A3F846202C
:105A200001237B62FDF7FCF80246FB69D31A3A6B4F
:105A30009A4203D83B6BB3F1FF3F02D13B6B002B83
:105A400003D1032387F823301CE0FB68DB8F9BB274
:105A5000002B7FF45BAFFB68B3F846309BB2002BA2
:105A60007FF454AFFA69396BF86800F0D3FA034653
:105A7000002B06D0012387F82330FB6820221A660A
:105A800000E000BFFB68012283F85D20FB68002274
:105A900083F85C2097F8233018462837BD4680BD30
:105AA00080B588B000AF78607B681B685B68FB617D
:105AB0007B681B689B68BB61BB699B0903F00103A2
:105AC000002B0FD1BB6903F00103002B0AD0FB6947
:105AD0009B0903F00103002B04D07B68DB6C786822
